{
  "contractName": "Geekt",
  "abi": [
    {
      "inputs": [],
      "payable": false,
      "stateMutability": "nonpayable",
      "type": "constructor"
    },
    {
      "constant": false,
      "inputs": [
        {
          "internalType": "address",
          "name": "badUser",
          "type": "address"
        }
      ],
      "name": "removeUser",
      "outputs": [
        {
          "internalType": "bool",
          "name": "success",
          "type": "bool"
        }
      ],
      "payable": false,
      "stateMutability": "nonpayable",
      "type": "function"
    },
    {
      "constant": false,
      "inputs": [
        {
          "internalType": "bytes32",
          "name": "badImage",
          "type": "bytes32"
        }
      ],
      "name": "removeImage",
      "outputs": [
        {
          "internalType": "bool",
          "name": "success",
          "type": "bool"
        }
      ],
      "payable": false,
      "stateMutability": "nonpayable",
      "type": "function"
    },
    {
      "constant": false,
      "inputs": [
        {
          "internalType": "string",
          "name": "handle",
          "type": "string"
        },
        {
          "internalType": "bytes32",
          "name": "city",
          "type": "bytes32"
        },
        {
          "internalType": "bytes32",
          "name": "state",
          "type": "bytes32"
        },
        {
          "internalType": "bytes32",
          "name": "country",
          "type": "bytes32"
        }
      ],
      "name": "registerNewUser",
      "outputs": [
        {
          "internalType": "bool",
          "name": "success",
          "type": "bool"
        }
      ],
      "payable": false,
      "stateMutability": "nonpayable",
      "type": "function"
    },
    {
      "constant": false,
      "inputs": [
        {
          "internalType": "string",
          "name": "imageURL",
          "type": "string"
        },
        {
          "internalType": "bytes32",
          "name": "SHA256notaryHash",
          "type": "bytes32"
        }
      ],
      "name": "addImageToUser",
      "outputs": [
        {
          "internalType": "bool",
          "name": "success",
          "type": "bool"
        }
      ],
      "payable": false,
      "stateMutability": "nonpayable",
      "type": "function"
    },
    {
      "constant": true,
      "inputs": [],
      "name": "getUsers",
      "outputs": [
        {
          "internalType": "address[]",
          "name": "",
          "type": "address[]"
        }
      ],
      "payable": false,
      "stateMutability": "view",
      "type": "function"
    },
    {
      "constant": true,
      "inputs": [
        {
          "internalType": "address",
          "name": "userAddress",
          "type": "address"
        }
      ],
      "name": "getUser",
      "outputs": [
        {
          "internalType": "string",
          "name": "",
          "type": "string"
        },
        {
          "internalType": "bytes32",
          "name": "",
          "type": "bytes32"
        },
        {
          "internalType": "bytes32",
          "name": "",
          "type": "bytes32"
        },
        {
          "internalType": "bytes32",
          "name": "",
          "type": "bytes32"
        },
        {
          "internalType": "bytes32[]",
          "name": "",
          "type": "bytes32[]"
        }
      ],
      "payable": false,
      "stateMutability": "view",
      "type": "function"
    },
    {
      "constant": true,
      "inputs": [],
      "name": "getAllImages",
      "outputs": [
        {
          "internalType": "bytes32[]",
          "name": "",
          "type": "bytes32[]"
        }
      ],
      "payable": false,
      "stateMutability": "view",
      "type": "function"
    },
    {
      "constant": true,
      "inputs": [
        {
          "internalType": "address",
          "name": "userAddress",
          "type": "address"
        }
      ],
      "name": "getUserImages",
      "outputs": [
        {
          "internalType": "bytes32[]",
          "name": "",
          "type": "bytes32[]"
        }
      ],
      "payable": false,
      "stateMutability": "view",
      "type": "function"
    },
    {
      "constant": true,
      "inputs": [
        {
          "internalType": "bytes32",
          "name": "SHA256notaryHash",
          "type": "bytes32"
        }
      ],
      "name": "getImage",
      "outputs": [
        {
          "internalType": "string",
          "name": "",
          "type": "string"
        },
        {
          "internalType": "uint256",
          "name": "",
          "type": "uint256"
        }
      ],
      "payable": false,
      "stateMutability": "view",
      "type": "function"
    }
  ],
  "bytecode": "0x608060405234801561001057600080fd5b50336000806101000a81548173ffffffffffffffffffffffffffffffffffffffff021916908373ffffffffffffffffffffffffffffffffffffffff160217905550611167806100606000396000f3fe608060405234801561001057600080fd5b50600436106100925760003560e01c80637b7284fc116100665780637b7284fc146103af5780637f2a6a5c1461040e57806398575188146104eb5780639f6c935814610547578063eb6bbd781461058d57610092565b8062ce8e3e14610097578063124b1789146100f65780636ced1ae9146101e75780636f77926b14610295575b600080fd5b61009f610626565b6040518080602001828103825283818151815260200191508051906020019060200280838360005b838110156100e25780820151818401526020810190506100c7565b505050509050019250505060405180910390f35b6101cd6004803603608081101561010c57600080fd5b810190808035906020019064010000000081111561012957600080fd5b82018360208201111561013b57600080fd5b8035906020019184600183028401116401000000008311171561015d57600080fd5b91908080601f016020809104026020016040519081016040528093929190818152602001838380828437600081840152601f19601f8201169050808301925050505050505091929192908035906020019092919080359060200190929190803590602001909291905050506106b4565b604051808215151515815260200191505060405180910390f35b610213600480360360208110156101fd57600080fd5b81019080803590602001909291905050506108d1565b6040518080602001838152602001828103825284818151815260200191508051906020019080838360005b8381101561025957808201518184015260208101905061023e565b50505050905090810190601f1680156102865780820380516001836020036101000a031916815260200191505b50935050505060405180910390f35b6102d7600480360360208110156102ab57600080fd5b81019080803573ffffffffffffffffffffffffffffffffffffffff1690602001909291905050506109a7565b604051808060200186815260200185815260200184815260200180602001838103835288818151815260200191508051906020019080838360005b8381101561032d578082015181840152602081019050610312565b50505050905090810190601f16801561035a5780820380516001836020036101000a031916815260200191505b50838103825284818151815260200191508051906020019060200280838360005b8381101561039657808201518184015260208101905061037b565b5050505090500197505050505050505060405180910390f35b6103b7610bfe565b6040518080602001828103825283818151815260200191508051906020019060200280838360005b838110156103fa5780820151818401526020810190506103df565b505050509050019250505060405180910390f35b6104d16004803603604081101561042457600080fd5b810190808035906020019064010000000081111561044157600080fd5b82018360208201111561045357600080fd5b8035906020019184600183028401116401000000008311171561047557600080fd5b91908080601f016020809104026020016040519081016040528093929190818152602001838380828437600081840152601f19601f82011690508083019250505050505050919291929080359060200190929190505050610c56565b604051808215151515815260200191505060405180910390f35b61052d6004803603602081101561050157600080fd5b81019080803573ffffffffffffffffffffffffffffffffffffffff169060200190929190505050610df5565b604051808215151515815260200191505060405180910390f35b6105736004803603602081101561055d57600080fd5b8101908080359060200190929190505050610ed3565b604051808215151515815260200191505060405180910390f35b6105cf600480360360208110156105a357600080fd5b81019080803573ffffffffffffffffffffffffffffffffffffffff169060200190929190505050610f65565b6040518080602001828103825283818151815260200191508051906020019060200280838360005b838110156106125780820151818401526020810190506105f7565b505050509050019250505060405180910390f35b606060048054806020026020016040519081016040528092919081815260200182805480156106aa57602002820191906000526020600020905b8160009054906101000a900473ffffffffffffffffffffffffffffffffffffffff1673ffffffffffffffffffffffffffffffffffffffff1681526020019060010190808311610660575b5050505050905090565b6000803390506000600360003373ffffffffffffffffffffffffffffffffffffffff1673ffffffffffffffffffffffffffffffffffffffff16815260200190815260200160002060000180546001816001161561010002031660029004905014801561072257506000865114155b156108c35785600360008373ffffffffffffffffffffffffffffffffffffffff1673ffffffffffffffffffffffffffffffffffffffff168152602001908152602001600020600001908051906020019061077d929190610fff565b5084600360008373ffffffffffffffffffffffffffffffffffffffff1673ffffffffffffffffffffffffffffffffffffffff1681526020019081526020016000206001018190555083600360008373ffffffffffffffffffffffffffffffffffffffff1673ffffffffffffffffffffffffffffffffffffffff1681526020019081526020016000206002018190555082600360008373ffffffffffffffffffffffffffffffffffffffff1673ffffffffffffffffffffffffffffffffffffffff1681526020019081526020016000206003018190555060048190806001815401808255809150509060018203906000526020600020016000909192909190916101000a81548173ffffffffffffffffffffffffffffffffffffffff021916908373ffffffffffffffffffffffffffffffffffffffff1602179055505060019150506108c9565b60009150505b949350505050565b60606000600160008481526020019081526020016000206000016001600085815260200190815260200160002060010154818054600181600116156101000203166002900480601f0160208091040260200160405190810160405280929190818152602001828054600181600116156101000203166002900480156109975780601f1061096c57610100808354040283529160200191610997565b820191906000526020600020905b81548152906001019060200180831161097a57829003601f168201915b5050505050915091509150915091565b606060008060006060600360008773ffffffffffffffffffffffffffffffffffffffff1673ffffffffffffffffffffffffffffffffffffffff168152602001908152602001600020600001600360008873ffffffffffffffffffffffffffffffffffffffff1673ffffffffffffffffffffffffffffffffffffffff16815260200190815260200160002060010154600360008973ffffffffffffffffffffffffffffffffffffffff1673ffffffffffffffffffffffffffffffffffffffff16815260200190815260200160002060020154600360008a73ffffffffffffffffffffffffffffffffffffffff1673ffffffffffffffffffffffffffffffffffffffff16815260200190815260200160002060030154600360008b73ffffffffffffffffffffffffffffffffffffffff1673ffffffffffffffffffffffffffffffffffffffff168152602001908152602001600020600401848054600181600116156101000203166002900480601f016020809104026020016040519081016040528092919081815260200182805460018160011615610100020316600290048015610b925780601f10610b6757610100808354040283529160200191610b92565b820191906000526020600020905b815481529060010190602001808311610b7557829003601f168201915b5050505050945080805480602002602001604051908101604052809291908181526020018280548015610be457602002820191906000526020600020905b815481526020019060010190808311610bd0575b505050505090509450945094509450945091939590929450565b60606002805480602002602001604051908101604052809291908181526020018280548015610c4c57602002820191906000526020600020905b815481526020019060010190808311610c38575b5050505050905090565b6000803390506000600360008373ffffffffffffffffffffffffffffffffffffffff1673ffffffffffffffffffffffffffffffffffffffff16815260200190815260200160002060000180546001816001161561010002031660029004905014610de9576000845114610ddf576000600160008581526020019081526020016000206000018054600181600116156101000203166002900490501415610d235760028390806001815401808255809150509060018203906000526020600020016000909192909190915055505b83600160008581526020019081526020016000206000019080519060200190610d4d929190610fff565b50426001600085815260200190815260200160002060010181905550600360008273ffffffffffffffffffffffffffffffffffffffff1673ffffffffffffffffffffffffffffffffffffffff1681526020019081526020016000206004018390806001815401808255809150509060018203906000526020600020016000909192909190915055506001915050610def565b6000915050610def565b60009150505b92915050565b60008060009054906101000a900473ffffffffffffffffffffffffffffffffffffffff1673ffffffffffffffffffffffffffffffffffffffff163373ffffffffffffffffffffffffffffffffffffffff1614610e5057600080fd5b600360008373ffffffffffffffffffffffffffffffffffffffff1673ffffffffffffffffffffffffffffffffffffffff16815260200190815260200160002060008082016000610ea0919061107f565b600182016000905560028201600090556003820160009055600482016000610ec891906110c7565b505060019050919050565b60008060009054906101000a900473ffffffffffffffffffffffffffffffffffffffff1673ffffffffffffffffffffffffffffffffffffffff163373ffffffffffffffffffffffffffffffffffffffff1614610f2e57600080fd5b6001600083815260200190815260200160002060008082016000610f52919061107f565b6001820160009055505060019050919050565b6060600360008373ffffffffffffffffffffffffffffffffffffffff1673ffffffffffffffffffffffffffffffffffffffff168152602001908152602001600020600401805480602002602001604051908101604052809291908181526020018280548015610ff357602002820191906000526020600020905b815481526020019060010190808311610fdf575b50505050509050919050565b828054600181600116156101000203166002900490600052602060002090601f016020900481019282601f1061104057805160ff191683800117855561106e565b8280016001018555821561106e579182015b8281111561106d578251825591602001919060010190611052565b5b50905061107b91906110e8565b5090565b50805460018160011615610100020316600290046000825580601f106110a557506110c4565b601f0160209004906000526020600020908101906110c391906110e8565b5b50565b50805460008255906000526020600020908101906110e5919061110d565b50565b61110a91905b808211156111065760008160009055506001016110ee565b5090565b90565b61112f91905b8082111561112b576000816000905550600101611113565b5090565b9056fea265627a7a72315820bb65715049ae318d01e325d79d2b519ab052397e19429847f6e57f26630c763564736f6c63430005100032",
  "source": "pragma solidity >=0.4.22 <0.8.0;\r\n\r\n// Simple Solidity intro/demo contract for BlockGeeks Article\r\ncontract Geekt {\r\n\r\n  address GeektAdmin;\r\n\r\n  mapping ( bytes32 => notarizedImage) notarizedImages;\r\n  bytes32[] imagesByNotaryHash;\r\n\r\n  mapping ( address => User ) Users;\r\n  address[] usersByAddress;\r\n\r\n  struct notarizedImage {\r\n    string imageURL;\r\n    uint timeStamp;\r\n  }\r\n\r\n  struct User {\r\n    string handle;\r\n    bytes32 city;\r\n    bytes32 state;\r\n    bytes32 country;\r\n    bytes32[] myImages;\r\n  }\r\n\r\nconstructor() public {\r\n    GeektAdmin = msg.sender;\r\n  }\r\n\r\n  modifier onlyAdmin() {\r\n      if (msg.sender != GeektAdmin)\r\n        revert();\r\n      _;\r\n  }\r\n\r\n  function removeUser(address badUser) public onlyAdmin returns (bool success) {\r\n    delete Users[badUser];\r\n    return true;\r\n  }\r\n\r\n  function removeImage(bytes32 badImage) public onlyAdmin returns (bool success) {\r\n    delete notarizedImages[badImage];\r\n    return true;\r\n  }\r\n\r\n  function registerNewUser(string memory handle, bytes32 city, bytes32 state, bytes32 country) public returns (bool success) {\r\n    address thisNewAddress = msg.sender;\r\n\r\n    if(bytes(Users[msg.sender].handle).length == 0 && bytes(handle).length != 0){\r\n      Users[thisNewAddress].handle = handle;\r\n      Users[thisNewAddress].city = city;\r\n      Users[thisNewAddress].state = state;\r\n      Users[thisNewAddress].country = country;\r\n      usersByAddress.push(thisNewAddress);\r\n      return true;\r\n    } else {\r\n      return false;\r\n    }\r\n  }\r\n\r\n  function addImageToUser(string memory imageURL, bytes32 SHA256notaryHash) public returns (bool success) {\r\n    address thisNewAddress = msg.sender;\r\n    if(bytes(Users[thisNewAddress].handle).length != 0){\r\n      if(bytes(imageURL).length != 0){\r\n        if(bytes(notarizedImages[SHA256notaryHash].imageURL).length == 0) {\r\n          imagesByNotaryHash.push(SHA256notaryHash);\r\n        }\r\n        notarizedImages[SHA256notaryHash].imageURL = imageURL;\r\n        notarizedImages[SHA256notaryHash].timeStamp = now;\r\n        Users[thisNewAddress].myImages.push(SHA256notaryHash);\r\n        return true;\r\n      } else {\r\n        return false;\r\n      }\r\n    } else {\r\n      return false;\r\n    }\r\n  }\r\n\r\n  function getUsers() public view returns (address[] memory) { return usersByAddress; }\r\n\r\n  function getUser(address userAddress) public view returns (string memory,bytes32,bytes32,bytes32,bytes32[] memory) {\r\n    return (Users[userAddress].handle,Users[userAddress].city,Users[userAddress].state,Users[userAddress].country,Users[userAddress].myImages);\r\n  }\r\n\r\n  function getAllImages() public view returns (bytes32[] memory) { return imagesByNotaryHash; }\r\n\r\n  function getUserImages(address userAddress) public view returns (bytes32[] memory) { return Users[userAddress].myImages; }\r\n\r\n  function getImage(bytes32 SHA256notaryHash) public view returns (string memory,uint) {\r\n    return (notarizedImages[SHA256notaryHash].imageURL,notarizedImages[SHA256notaryHash].timeStamp);\r\n  }\r\n\r\n}\r\n",
  "sourcePath": "C:/Users/TimW/Desktop/Blockchain test/geekt/contracts/Geekt.sol",
  "compiler": {
    "name": "solc",
    "version": "0.5.16+commit.9c3226ce.Emscripten.clang"
  },
  "schemaVersion": "3.2.5",
  "updatedAt": "2020-10-15T13:10:20.183Z",
  "networkType": "ethereum",
  "devdoc": {
    "methods": {}
  },
  "userdoc": {
    "methods": {}
  }
}